{
  "_format": "hh-sol-artifact-1",
  "contractName": "MyEpicNFT",
  "sourceName": "contracts/MyEpicNFT.sol",
  "abi": [
    {
      "inputs": [],
      "stateMutability": "nonpayable",
      "type": "constructor"
    },
    {
      "anonymous": false,
      "inputs": [
        {
          "indexed": true,
          "internalType": "address",
          "name": "owner",
          "type": "address"
        },
        {
          "indexed": true,
          "internalType": "address",
          "name": "approved",
          "type": "address"
        },
        {
          "indexed": true,
          "internalType": "uint256",
          "name": "tokenId",
          "type": "uint256"
        }
      ],
      "name": "Approval",
      "type": "event"
    },
    {
      "anonymous": false,
      "inputs": [
        {
          "indexed": true,
          "internalType": "address",
          "name": "owner",
          "type": "address"
        },
        {
          "indexed": true,
          "internalType": "address",
          "name": "operator",
          "type": "address"
        },
        {
          "indexed": false,
          "internalType": "bool",
          "name": "approved",
          "type": "bool"
        }
      ],
      "name": "ApprovalForAll",
      "type": "event"
    },
    {
      "anonymous": false,
      "inputs": [
        {
          "indexed": true,
          "internalType": "address",
          "name": "from",
          "type": "address"
        },
        {
          "indexed": true,
          "internalType": "address",
          "name": "to",
          "type": "address"
        },
        {
          "indexed": true,
          "internalType": "uint256",
          "name": "tokenId",
          "type": "uint256"
        }
      ],
      "name": "Transfer",
      "type": "event"
    },
    {
      "inputs": [
        {
          "internalType": "address",
          "name": "to",
          "type": "address"
        },
        {
          "internalType": "uint256",
          "name": "tokenId",
          "type": "uint256"
        }
      ],
      "name": "approve",
      "outputs": [],
      "stateMutability": "nonpayable",
      "type": "function"
    },
    {
      "inputs": [
        {
          "internalType": "address",
          "name": "owner",
          "type": "address"
        }
      ],
      "name": "balanceOf",
      "outputs": [
        {
          "internalType": "uint256",
          "name": "",
          "type": "uint256"
        }
      ],
      "stateMutability": "view",
      "type": "function"
    },
    {
      "inputs": [],
      "name": "collectionName",
      "outputs": [
        {
          "internalType": "string",
          "name": "",
          "type": "string"
        }
      ],
      "stateMutability": "view",
      "type": "function"
    },
    {
      "inputs": [],
      "name": "collectionSymbol",
      "outputs": [
        {
          "internalType": "string",
          "name": "",
          "type": "string"
        }
      ],
      "stateMutability": "view",
      "type": "function"
    },
    {
      "inputs": [
        {
          "internalType": "uint256",
          "name": "tokenId",
          "type": "uint256"
        }
      ],
      "name": "getApproved",
      "outputs": [
        {
          "internalType": "address",
          "name": "",
          "type": "address"
        }
      ],
      "stateMutability": "view",
      "type": "function"
    },
    {
      "inputs": [
        {
          "internalType": "address",
          "name": "owner",
          "type": "address"
        },
        {
          "internalType": "address",
          "name": "operator",
          "type": "address"
        }
      ],
      "name": "isApprovedForAll",
      "outputs": [
        {
          "internalType": "bool",
          "name": "",
          "type": "bool"
        }
      ],
      "stateMutability": "view",
      "type": "function"
    },
    {
      "inputs": [],
      "name": "makeAnEpicNFT",
      "outputs": [],
      "stateMutability": "nonpayable",
      "type": "function"
    },
    {
      "inputs": [],
      "name": "name",
      "outputs": [
        {
          "internalType": "string",
          "name": "",
          "type": "string"
        }
      ],
      "stateMutability": "view",
      "type": "function"
    },
    {
      "inputs": [
        {
          "internalType": "uint256",
          "name": "tokenId",
          "type": "uint256"
        }
      ],
      "name": "ownerOf",
      "outputs": [
        {
          "internalType": "address",
          "name": "",
          "type": "address"
        }
      ],
      "stateMutability": "view",
      "type": "function"
    },
    {
      "inputs": [
        {
          "internalType": "uint256",
          "name": "tokenId",
          "type": "uint256"
        }
      ],
      "name": "pickRandomFirstWord",
      "outputs": [
        {
          "internalType": "string",
          "name": "",
          "type": "string"
        }
      ],
      "stateMutability": "view",
      "type": "function"
    },
    {
      "inputs": [
        {
          "internalType": "uint256",
          "name": "tokenId",
          "type": "uint256"
        }
      ],
      "name": "pickRandomSecondWord",
      "outputs": [
        {
          "internalType": "string",
          "name": "",
          "type": "string"
        }
      ],
      "stateMutability": "view",
      "type": "function"
    },
    {
      "inputs": [
        {
          "internalType": "uint256",
          "name": "tokenId",
          "type": "uint256"
        }
      ],
      "name": "pickRandomThirdWord",
      "outputs": [
        {
          "internalType": "string",
          "name": "",
          "type": "string"
        }
      ],
      "stateMutability": "view",
      "type": "function"
    },
    {
      "inputs": [
        {
          "internalType": "address",
          "name": "from",
          "type": "address"
        },
        {
          "internalType": "address",
          "name": "to",
          "type": "address"
        },
        {
          "internalType": "uint256",
          "name": "tokenId",
          "type": "uint256"
        }
      ],
      "name": "safeTransferFrom",
      "outputs": [],
      "stateMutability": "nonpayable",
      "type": "function"
    },
    {
      "inputs": [
        {
          "internalType": "address",
          "name": "from",
          "type": "address"
        },
        {
          "internalType": "address",
          "name": "to",
          "type": "address"
        },
        {
          "internalType": "uint256",
          "name": "tokenId",
          "type": "uint256"
        },
        {
          "internalType": "bytes",
          "name": "_data",
          "type": "bytes"
        }
      ],
      "name": "safeTransferFrom",
      "outputs": [],
      "stateMutability": "nonpayable",
      "type": "function"
    },
    {
      "inputs": [
        {
          "internalType": "address",
          "name": "operator",
          "type": "address"
        },
        {
          "internalType": "bool",
          "name": "approved",
          "type": "bool"
        }
      ],
      "name": "setApprovalForAll",
      "outputs": [],
      "stateMutability": "nonpayable",
      "type": "function"
    },
    {
      "inputs": [
        {
          "internalType": "bytes4",
          "name": "interfaceId",
          "type": "bytes4"
        }
      ],
      "name": "supportsInterface",
      "outputs": [
        {
          "internalType": "bool",
          "name": "",
          "type": "bool"
        }
      ],
      "stateMutability": "view",
      "type": "function"
    },
    {
      "inputs": [],
      "name": "symbol",
      "outputs": [
        {
          "internalType": "string",
          "name": "",
          "type": "string"
        }
      ],
      "stateMutability": "view",
      "type": "function"
    },
    {
      "inputs": [
        {
          "internalType": "uint256",
          "name": "tokenId",
          "type": "uint256"
        }
      ],
      "name": "tokenURI",
      "outputs": [
        {
          "internalType": "string",
          "name": "",
          "type": "string"
        }
      ],
      "stateMutability": "view",
      "type": "function"
    },
    {
      "inputs": [
        {
          "internalType": "address",
          "name": "from",
          "type": "address"
        },
        {
          "internalType": "address",
          "name": "to",
          "type": "address"
        },
        {
          "internalType": "uint256",
          "name": "tokenId",
          "type": "uint256"
        }
      ],
      "name": "transferFrom",
      "outputs": [],
      "stateMutability": "nonpayable",
      "type": "function"
    }
  ],
  "bytecode": "0x608060405260405180610160016040528061012f8152602001620047c661012f9139600a90805190602001906200003892919062000ac9565b506040518061014001604052806040518060400160405280600881526020017f4368696c6469736800000000000000000000000000000000000000000000000081525081526020016040518060400160405280600581526020017f4372617a7900000000000000000000000000000000000000000000000000000081525081526020016040518060400160405280600981526020017f467269766f6c6f7573000000000000000000000000000000000000000000000081525081526020016040518060400160405280600781526020017f4964696f7469630000000000000000000000000000000000000000000000000081525081526020016040518060400160405280600581526020017f53696c6c7900000000000000000000000000000000000000000000000000000081525081526020016040518060400160405280600581526020017f44697a7a7900000000000000000000000000000000000000000000000000000081525081526020016040518060400160405280600681526020017f53696d706c65000000000000000000000000000000000000000000000000000081525081526020016040518060400160405280600c81526020017f507265706f737465726f7573000000000000000000000000000000000000000081525081526020016040518060400160405280600981526020017f506f696e746c657373000000000000000000000000000000000000000000000081525081526020016040518060400160405280600981526020017f4c75646963726f75730000000000000000000000000000000000000000000000815250815250600b90600a620002a392919062000b5a565b506040518061014001604052806040518060400160405280600b81526020017f41737472696e67656e637900000000000000000000000000000000000000000081525081526020016040518060400160405280600681526020017f416369646963000000000000000000000000000000000000000000000000000081525081526020016040518060400160405280600581526020017f4275726e7400000000000000000000000000000000000000000000000000000081525081526020016040518060400160405280600781526020017f427574746572790000000000000000000000000000000000000000000000000081525081526020016040518060400160405280600581526020017f4d7573747900000000000000000000000000000000000000000000000000000081525081526020016040518060400160405280600781526020017f50756e67656e740000000000000000000000000000000000000000000000000081525081526020016040518060400160405280600681526020017f52616e636964000000000000000000000000000000000000000000000000000081525081526020016040518060400160405280600581526020017f537765657400000000000000000000000000000000000000000000000000000081525081526020016040518060400160405280600581526020017f54616e677900000000000000000000000000000000000000000000000000000081525081526020016040518060400160405280600481526020017f5461727400000000000000000000000000000000000000000000000000000000815250815250600c90600a6200050e92919062000b5a565b506040518061014001604052806040518060400160405280600481526020017f447564650000000000000000000000000000000000000000000000000000000081525081526020016040518060400160405280600381526020017f4d616e000000000000000000000000000000000000000000000000000000000081525081526020016040518060400160405280600381526020017f42726f000000000000000000000000000000000000000000000000000000000081525081526020016040518060400160405280600481526020017f427275680000000000000000000000000000000000000000000000000000000081525081526020016040518060400160405280600481526020017f427261680000000000000000000000000000000000000000000000000000000081525081526020016040518060400160405280600381526020017f477579000000000000000000000000000000000000000000000000000000000081525081526020016040518060400160405280600381526020017f50616c000000000000000000000000000000000000000000000000000000000081525081526020016040518060400160405280600481526020017f4672616e0000000000000000000000000000000000000000000000000000000081525081526020016040518060400160405280600a81526020017f4d616e626561727069670000000000000000000000000000000000000000000081525081526020016040518060400160405280600381526020017f4775680000000000000000000000000000000000000000000000000000000000815250815250600d90600a6200077992919062000b5a565b503480156200078757600080fd5b506040518060400160405280600981526020017f5371756172654e465400000000000000000000000000000000000000000000008152506040518060400160405280600681526020017f535155415245000000000000000000000000000000000000000000000000000081525081600090805190602001906200080c92919062000ac9565b5080600190805190602001906200082592919062000ac9565b50505062000838620008c960201b60201c565b600890805190602001906200084f92919062000ac9565b50620008606200096360201b60201c565b600990805190602001906200087792919062000ac9565b50620008c36040518060400160405280601f81526020017f54686973206973206d79204e465420636f6e74726163742e204e4541544f2100815250620009fd60201b620012161760201c565b62000d7b565b606060008054620008da9062000d05565b80601f0160208091040260200160405190810160405280929190818152602001828054620009089062000d05565b8015620009595780601f106200092d5761010080835404028352916020019162000959565b820191906000526020600020905b8154815290600101906020018083116200093b57829003601f168201915b5050505050905090565b606060018054620009749062000d05565b80601f0160208091040260200160405190810160405280929190818152602001828054620009a29062000d05565b8015620009f35780601f10620009c757610100808354040283529160200191620009f3565b820191906000526020600020905b815481529060010190602001808311620009d557829003601f168201915b5050505050905090565b62000a9d8160405160240162000a14919062000c8f565b6040516020818303038152906040527f41304fac000000000000000000000000000000000000000000000000000000007bffffffffffffffffffffffffffffffffffffffffffffffffffffffff19166020820180517bffffffffffffffffffffffffffffffffffffffffffffffffffffffff838183161783525050505062000aa060201b60201c565b50565b60008151905060006a636f6e736f6c652e6c6f679050602083016000808483855afa5050505050565b82805462000ad79062000d05565b90600052602060002090601f01602090048101928262000afb576000855562000b47565b82601f1062000b1657805160ff191683800117855562000b47565b8280016001018555821562000b47579182015b8281111562000b4657825182559160200191906001019062000b29565b5b50905062000b56919062000bc1565b5090565b82805482825590600052602060002090810192821562000bae579160200282015b8281111562000bad57825182908051906020019062000b9c92919062000ac9565b509160200191906001019062000b7b565b5b50905062000bbd919062000be0565b5090565b5b8082111562000bdc57600081600090555060010162000bc2565b5090565b5b8082111562000c04576000818162000bfa919062000c08565b5060010162000be1565b5090565b50805462000c169062000d05565b6000825580601f1062000c2a575062000c4b565b601f01602090049060005260206000209081019062000c4a919062000bc1565b5b50565b600062000c5b8262000cb3565b62000c67818562000cbe565b935062000c7981856020860162000ccf565b62000c848162000d6a565b840191505092915050565b6000602082019050818103600083015262000cab818462000c4e565b905092915050565b600081519050919050565b600082825260208201905092915050565b60005b8381101562000cef57808201518184015260208101905062000cd2565b8381111562000cff576000848401525b50505050565b6000600282049050600182168062000d1e57607f821691505b6020821081141562000d355762000d3462000d3b565b5b50919050565b7f4e487b7100000000000000000000000000000000000000000000000000000000600052602260045260246000fd5b6000601f19601f8301169050919050565b613a3b8062000d8b6000396000f3fe608060405234801561001057600080fd5b50600436106101215760003560e01c806370a08231116100ad578063c575757a11610071578063c575757a1461032c578063c87b56dd1461035c578063de9d132f1461038c578063e5326ab114610396578063e985e9c5146103b457610121565b806370a082311461027657806395d89b41146102a6578063a22cb465146102c4578063b187301f146102e0578063b88d4fde1461031057610121565b806323b872dd116100f457806323b872dd146101c05780632de38d68146101dc5780632f39352a1461020c57806342842e0e1461022a5780636352211e1461024657610121565b806301ffc9a71461012657806306fdde0314610156578063081812fc14610174578063095ea7b3146101a4575b600080fd5b610140600480360381019061013b9190612616565b6103e4565b60405161014d91906132b1565b60405180910390f35b61015e6104c6565b60405161016b91906132cc565b60405180910390f35b61018e60048036038101906101899190612668565b610558565b60405161019b919061324a565b60405180910390f35b6101be60048036038101906101b991906125da565b6105dd565b005b6101da60048036038101906101d591906124d4565b6106f5565b005b6101f660048036038101906101f19190612668565b610755565b60405161020391906132cc565b60405180910390f35b610214610873565b60405161022191906132cc565b60405180910390f35b610244600480360381019061023f91906124d4565b610901565b005b610260600480360381019061025b9190612668565b610921565b60405161026d919061324a565b60405180910390f35b610290600480360381019061028b919061246f565b6109d3565b60405161029d919061352c565b60405180910390f35b6102ae610a8b565b6040516102bb91906132cc565b60405180910390f35b6102de60048036038101906102d9919061259e565b610b1d565b005b6102fa60048036038101906102f59190612668565b610b33565b60405161030791906132cc565b60405180910390f35b61032a60048036038101906103259190612523565b610c51565b005b61034660048036038101906103419190612668565b610cb3565b60405161035391906132cc565b60405180910390f35b61037660048036038101906103719190612668565b610dd1565b60405161038391906132cc565b60405180910390f35b610394610f23565b005b61039e6110f4565b6040516103ab91906132cc565b60405180910390f35b6103ce60048036038101906103c99190612498565b611182565b6040516103db91906132b1565b60405180910390f35b60007f80ac58cd000000000000000000000000000000000000000000000000000000007bffffffffffffffffffffffffffffffffffffffffffffffffffffffff1916827bffffffffffffffffffffffffffffffffffffffffffffffffffffffff191614806104af57507f5b5e139f000000000000000000000000000000000000000000000000000000007bffffffffffffffffffffffffffffffffffffffffffffffffffffffff1916827bffffffffffffffffffffffffffffffffffffffffffffffffffffffff1916145b806104bf57506104be826112af565b5b9050919050565b6060600080546104d5906137cb565b80601f0160208091040260200160405190810160405280929190818152602001828054610501906137cb565b801561054e5780601f106105235761010080835404028352916020019161054e565b820191906000526020600020905b81548152906001019060200180831161053157829003601f168201915b5050505050905090565b600061056382611319565b6105a2576040517f08c379a00000000000000000000000000000000000000000000000000000000081526004016105999061348c565b60405180910390fd5b6004600083815260200190815260200160002060009054906101000a900473ffffffffffffffffffffffffffffffffffffffff169050919050565b60006105e882610921565b90508073ffffffffffffffffffffffffffffffffffffffff168373ffffffffffffffffffffffffffffffffffffffff161415610659576040517f08c379a0000000000000000000000000000000000000000000000000000000008152600401610650906134ec565b60405180910390fd5b8073ffffffffffffffffffffffffffffffffffffffff16610678611385565b73ffffffffffffffffffffffffffffffffffffffff1614806106a757506106a6816106a1611385565b611182565b5b6106e6576040517f08c379a00000000000000000000000000000000000000000000000000000000081526004016106dd906133cc565b60405180910390fd5b6106f0838361138d565b505050565b610706610700611385565b82611446565b610745576040517f08c379a000000000000000000000000000000000000000000000000000000000815260040161073c9061350c565b60405180910390fd5b610750838383611524565b505050565b6060600061078961076584611780565b6040516020016107759190613206565b60405160208183030381529060405261192d565b9050600b805490508161079c9190613846565b9050600b81815481106107d8577f4e487b7100000000000000000000000000000000000000000000000000000000600052603260045260246000fd5b9060005260206000200180546107ed906137cb565b80601f0160208091040260200160405190810160405280929190818152602001828054610819906137cb565b80156108665780601f1061083b57610100808354040283529160200191610866565b820191906000526020600020905b81548152906001019060200180831161084957829003601f168201915b5050505050915050919050565b60098054610880906137cb565b80601f01602080910402602001604051908101604052809291908181526020018280546108ac906137cb565b80156108f95780601f106108ce576101008083540402835291602001916108f9565b820191906000526020600020905b8154815290600101906020018083116108dc57829003601f168201915b505050505081565b61091c83838360405180602001604052806000815250610c51565b505050565b6000806002600084815260200190815260200160002060009054906101000a900473ffffffffffffffffffffffffffffffffffffffff169050600073ffffffffffffffffffffffffffffffffffffffff168173ffffffffffffffffffffffffffffffffffffffff1614156109ca576040517f08c379a00000000000000000000000000000000000000000000000000000000081526004016109c19061340c565b60405180910390fd5b80915050919050565b60008073ffffffffffffffffffffffffffffffffffffffff168273ffffffffffffffffffffffffffffffffffffffff161415610a44576040517f08c379a0000000000000000000000000000000000000000000000000000000008152600401610a3b906133ec565b60405180910390fd5b600360008373ffffffffffffffffffffffffffffffffffffffff1673ffffffffffffffffffffffffffffffffffffffff168152602001908152602001600020549050919050565b606060018054610a9a906137cb565b80601f0160208091040260200160405190810160405280929190818152602001828054610ac6906137cb565b8015610b135780601f10610ae857610100808354040283529160200191610b13565b820191906000526020600020905b815481529060010190602001808311610af657829003601f168201915b5050505050905090565b610b2f610b28611385565b8383611960565b5050565b60606000610b67610b4384611780565b604051602001610b53919061319f565b60405160208183030381529060405261192d565b9050600c8054905081610b7a9190613846565b9050600c8181548110610bb6577f4e487b7100000000000000000000000000000000000000000000000000000000600052603260045260246000fd5b906000526020600020018054610bcb906137cb565b80601f0160208091040260200160405190810160405280929190818152602001828054610bf7906137cb565b8015610c445780601f10610c1957610100808354040283529160200191610c44565b820191906000526020600020905b815481529060010190602001808311610c2757829003601f168201915b5050505050915050919050565b610c62610c5c611385565b83611446565b610ca1576040517f08c379a0000000000000000000000000000000000000000000000000000000008152600401610c989061350c565b60405180910390fd5b610cad84848484611acd565b50505050565b60606000610ce7610cc384611780565b604051602001610cd3919061317d565b60405160208183030381529060405261192d565b9050600d8054905081610cfa9190613846565b9050600d8181548110610d36577f4e487b7100000000000000000000000000000000000000000000000000000000600052603260045260246000fd5b906000526020600020018054610d4b906137cb565b80601f0160208091040260200160405190810160405280929190818152602001828054610d77906137cb565b8015610dc45780601f10610d9957610100808354040283529160200191610dc4565b820191906000526020600020905b815481529060010190602001808311610da757829003601f168201915b5050505050915050919050565b6060610ddc82611319565b610e1b576040517f08c379a0000000000000000000000000000000000000000000000000000000008152600401610e129061346c565b60405180910390fd5b6000600660008481526020019081526020016000208054610e3b906137cb565b80601f0160208091040260200160405190810160405280929190818152602001828054610e67906137cb565b8015610eb45780601f10610e8957610100808354040283529160200191610eb4565b820191906000526020600020905b815481529060010190602001808311610e9757829003601f168201915b505050505090506000610ec5611b29565b9050600081511415610edb578192505050610f1e565b600082511115610f10578082604051602001610ef89291906130bd565b60405160208183030381529060405292505050610f1e565b610f1984611b40565b925050505b919050565b6000610f2f6007611be7565b90506000610f3c82610755565b90506000610f4983610b33565b90506000610f5684610cb3565b90506000838383604051602001610f6f939291906130e1565b60405160208183030381529060405290506000600a858585604051602001610f9a9493929190613112565b60405160208183030381529060405290506000610fdf83610fba84611bf5565b604051602001610fcb9291906131c1565b604051602081830303815290604052611bf5565b9050600081604051602001610ff49190613228565b60405160208183030381529060405290506110436040518060400160405280601581526020017f0a2d2d2d2d2d2d2d2d2d2d2d2d2d2d2d2d2d2d2d2d0000000000000000000000815250611216565b61106b81604051602001611057919061315b565b604051602081830303815290604052611216565b6110a96040518060400160405280601581526020017f2d2d2d2d2d2d2d2d2d2d2d2d2d2d2d2d2d2d2d2d0a0000000000000000000000815250611216565b6110b33389611db3565b6110bd8882611dd1565b6110c76007611e45565b6110ea6040518060600160405280602581526020016139a1602591398933611e5b565b5050505050505050565b60088054611101906137cb565b80601f016020809104026020016040519081016040528092919081815260200182805461112d906137cb565b801561117a5780601f1061114f5761010080835404028352916020019161117a565b820191906000526020600020905b81548152906001019060200180831161115d57829003601f168201915b505050505081565b6000600560008473ffffffffffffffffffffffffffffffffffffffff1673ffffffffffffffffffffffffffffffffffffffff16815260200190815260200160002060008373ffffffffffffffffffffffffffffffffffffffff1673ffffffffffffffffffffffffffffffffffffffff16815260200190815260200160002060009054906101000a900460ff16905092915050565b6112ac8160405160240161122a91906132cc565b6040516020818303038152906040527f41304fac000000000000000000000000000000000000000000000000000000007bffffffffffffffffffffffffffffffffffffffffffffffffffffffff19166020820180517bffffffffffffffffffffffffffffffffffffffffffffffffffffffff8381831617835250505050611efa565b50565b60007f01ffc9a7000000000000000000000000000000000000000000000000000000007bffffffffffffffffffffffffffffffffffffffffffffffffffffffff1916827bffffffffffffffffffffffffffffffffffffffffffffffffffffffff1916149050919050565b60008073ffffffffffffffffffffffffffffffffffffffff166002600084815260200190815260200160002060009054906101000a900473ffffffffffffffffffffffffffffffffffffffff1673ffffffffffffffffffffffffffffffffffffffff1614159050919050565b600033905090565b816004600083815260200190815260200160002060006101000a81548173ffffffffffffffffffffffffffffffffffffffff021916908373ffffffffffffffffffffffffffffffffffffffff160217905550808273ffffffffffffffffffffffffffffffffffffffff1661140083610921565b73ffffffffffffffffffffffffffffffffffffffff167f8c5be1e5ebec7d5bd14f71427d1e84f3dd0314c0f7b2291e5b200ac8c7c3b92560405160405180910390a45050565b600061145182611319565b611490576040517f08c379a0000000000000000000000000000000000000000000000000000000008152600401611487906133ac565b60405180910390fd5b600061149b83610921565b90508073ffffffffffffffffffffffffffffffffffffffff168473ffffffffffffffffffffffffffffffffffffffff16148061150a57508373ffffffffffffffffffffffffffffffffffffffff166114f284610558565b73ffffffffffffffffffffffffffffffffffffffff16145b8061151b575061151a8185611182565b5b91505092915050565b8273ffffffffffffffffffffffffffffffffffffffff1661154482610921565b73ffffffffffffffffffffffffffffffffffffffff161461159a576040517f08c379a0000000000000000000000000000000000000000000000000000000008152600401611591906134ac565b60405180910390fd5b600073ffffffffffffffffffffffffffffffffffffffff168273ffffffffffffffffffffffffffffffffffffffff16141561160a576040517f08c379a00000000000000000000000000000000000000000000000000000000081526004016116019061336c565b60405180910390fd5b611615838383611f23565b61162060008261138d565b6001600360008573ffffffffffffffffffffffffffffffffffffffff1673ffffffffffffffffffffffffffffffffffffffff168152602001908152602001600020600082825461167091906136e1565b925050819055506001600360008473ffffffffffffffffffffffffffffffffffffffff1673ffffffffffffffffffffffffffffffffffffffff16815260200190815260200160002060008282546116c79190613600565b92505081905550816002600083815260200190815260200160002060006101000a81548173ffffffffffffffffffffffffffffffffffffffff021916908373ffffffffffffffffffffffffffffffffffffffff160217905550808273ffffffffffffffffffffffffffffffffffffffff168473ffffffffffffffffffffffffffffffffffffffff167fddf252ad1be2c89b69c2b068fc378daa952ba7f163c4a11628f55a4df523b3ef60405160405180910390a4505050565b606060008214156117c8576040518060400160405280600181526020017f30000000000000000000000000000000000000000000000000000000000000008152509050611928565b600082905060005b600082146117fa5780806117e3906137fd565b915050600a826117f39190613656565b91506117d0565b60008167ffffffffffffffff81111561183c577f4e487b7100000000000000000000000000000000000000000000000000000000600052604160045260246000fd5b6040519080825280601f01601f19166020018201604052801561186e5781602001600182028036833780820191505090505b5090505b600085146119215760018261188791906136e1565b9150600a856118969190613846565b60306118a29190613600565b60f81b8183815181106118de577f4e487b7100000000000000000000000000000000000000000000000000000000600052603260045260246000fd5b60200101907effffffffffffffffffffffffffffffffffffffffffffffffffffffffffffff1916908160001a905350600a8561191a9190613656565b9450611872565b8093505050505b919050565b60008160405160200161194091906130a6565b6040516020818303038152906040528051906020012060001c9050919050565b8173ffffffffffffffffffffffffffffffffffffffff168373ffffffffffffffffffffffffffffffffffffffff1614156119cf576040517f08c379a00000000000000000000000000000000000000000000000000000000081526004016119c69061338c565b60405180910390fd5b80600560008573ffffffffffffffffffffffffffffffffffffffff1673ffffffffffffffffffffffffffffffffffffffff16815260200190815260200160002060008473ffffffffffffffffffffffffffffffffffffffff1673ffffffffffffffffffffffffffffffffffffffff16815260200190815260200160002060006101000a81548160ff0219169083151502179055508173ffffffffffffffffffffffffffffffffffffffff168373ffffffffffffffffffffffffffffffffffffffff167f17307eab39ab6107e8899845ad3d59bd9653f200f220920489ca2b5937696c3183604051611ac091906132b1565b60405180910390a3505050565b611ad8848484611524565b611ae484848484611f28565b611b23576040517f08c379a0000000000000000000000000000000000000000000000000000000008152600401611b1a9061332c565b60405180910390fd5b50505050565b606060405180602001604052806000815250905090565b6060611b4b82611319565b611b8a576040517f08c379a0000000000000000000000000000000000000000000000000000000008152600401611b81906134cc565b60405180910390fd5b6000611b94611b29565b90506000815111611bb45760405180602001604052806000815250611bdf565b80611bbe84611780565b604051602001611bcf9291906130bd565b6040516020818303038152906040525b915050919050565b600081600001549050919050565b60606000825190506000811415611c1e5760405180602001604052806000815250915050611dae565b60006003600283611c2f9190613600565b611c399190613656565b6004611c459190613687565b90506000602082611c569190613600565b67ffffffffffffffff811115611c95577f4e487b7100000000000000000000000000000000000000000000000000000000600052604160045260246000fd5b6040519080825280601f01601f191660200182016040528015611cc75781602001600182028036833780820191505090505b50905060006040518060600160405280604081526020016139c6604091399050600181016020830160005b86811015611d6b5760038101905062ffffff818a015116603f8160121c168401518060081b905060ff603f83600c1c1686015116810190508060081b905060ff603f8360061c1686015116810190508060081b905060ff603f831686015116810190508060e01b90508084526004840193505050611cf2565b506003860660018114611d855760028114611d9557611da0565b613d3d60f01b6002830352611da0565b603d60f81b60018303525b508484525050819450505050505b919050565b611dcd8282604051806020016040528060008152506120bf565b5050565b611dda82611319565b611e19576040517f08c379a0000000000000000000000000000000000000000000000000000000008152600401611e109061342c565b60405180910390fd5b80600660008481526020019081526020016000209080519060200190611e409291906122fb565b505050565b6001816000016000828254019250508190555050565b611ef5838383604051602401611e73939291906132ee565b6040516020818303038152906040527fe3849f79000000000000000000000000000000000000000000000000000000007bffffffffffffffffffffffffffffffffffffffffffffffffffffffff19166020820180517bffffffffffffffffffffffffffffffffffffffffffffffffffffffff8381831617835250505050611efa565b505050565b60008151905060006a636f6e736f6c652e6c6f679050602083016000808483855afa5050505050565b505050565b6000611f498473ffffffffffffffffffffffffffffffffffffffff1661211a565b156120b2578373ffffffffffffffffffffffffffffffffffffffff1663150b7a02611f72611385565b8786866040518563ffffffff1660e01b8152600401611f949493929190613265565b602060405180830381600087803b158015611fae57600080fd5b505af1925050508015611fdf57506040513d601f19601f82011682018060405250810190611fdc919061263f565b60015b612062573d806000811461200f576040519150601f19603f3d011682016040523d82523d6000602084013e612014565b606091505b5060008151141561205a576040517f08c379a00000000000000000000000000000000000000000000000000000000081526004016120519061332c565b60405180910390fd5b805181602001fd5b63150b7a0260e01b7bffffffffffffffffffffffffffffffffffffffffffffffffffffffff1916817bffffffffffffffffffffffffffffffffffffffffffffffffffffffff1916149150506120b7565b600190505b949350505050565b6120c9838361212d565b6120d66000848484611f28565b612115576040517f08c379a000000000000000000000000000000000000000000000000000000000815260040161210c9061332c565b60405180910390fd5b505050565b600080823b905060008111915050919050565b600073ffffffffffffffffffffffffffffffffffffffff168273ffffffffffffffffffffffffffffffffffffffff16141561219d576040517f08c379a00000000000000000000000000000000000000000000000000000000081526004016121949061344c565b60405180910390fd5b6121a681611319565b156121e6576040517f08c379a00000000000000000000000000000000000000000000000000000000081526004016121dd9061334c565b60405180910390fd5b6121f260008383611f23565b6001600360008473ffffffffffffffffffffffffffffffffffffffff1673ffffffffffffffffffffffffffffffffffffffff16815260200190815260200160002060008282546122429190613600565b92505081905550816002600083815260200190815260200160002060006101000a81548173ffffffffffffffffffffffffffffffffffffffff021916908373ffffffffffffffffffffffffffffffffffffffff160217905550808273ffffffffffffffffffffffffffffffffffffffff16600073ffffffffffffffffffffffffffffffffffffffff167fddf252ad1be2c89b69c2b068fc378daa952ba7f163c4a11628f55a4df523b3ef60405160405180910390a45050565b828054612307906137cb565b90600052602060002090601f0160209004810192826123295760008555612370565b82601f1061234257805160ff1916838001178555612370565b82800160010185558215612370579182015b8281111561236f578251825591602001919060010190612354565b5b50905061237d9190612381565b5090565b5b8082111561239a576000816000905550600101612382565b5090565b60006123b16123ac84613578565b613547565b9050828152602081018484840111156123c957600080fd5b6123d4848285613789565b509392505050565b6000813590506123eb81613944565b92915050565b6000813590506124008161395b565b92915050565b60008135905061241581613972565b92915050565b60008151905061242a81613972565b92915050565b600082601f83011261244157600080fd5b813561245184826020860161239e565b91505092915050565b60008135905061246981613989565b92915050565b60006020828403121561248157600080fd5b600061248f848285016123dc565b91505092915050565b600080604083850312156124ab57600080fd5b60006124b9858286016123dc565b92505060206124ca858286016123dc565b9150509250929050565b6000806000606084860312156124e957600080fd5b60006124f7868287016123dc565b9350506020612508868287016123dc565b92505060406125198682870161245a565b9150509250925092565b6000806000806080858703121561253957600080fd5b6000612547878288016123dc565b9450506020612558878288016123dc565b93505060406125698782880161245a565b925050606085013567ffffffffffffffff81111561258657600080fd5b61259287828801612430565b91505092959194509250565b600080604083850312156125b157600080fd5b60006125bf858286016123dc565b92505060206125d0858286016123f1565b9150509250929050565b600080604083850312156125ed57600080fd5b60006125fb858286016123dc565b925050602061260c8582860161245a565b9150509250929050565b60006020828403121561262857600080fd5b600061263684828501612406565b91505092915050565b60006020828403121561265157600080fd5b600061265f8482850161241b565b91505092915050565b60006020828403121561267a57600080fd5b60006126888482850161245a565b91505092915050565b61269a81613715565b82525050565b6126a981613727565b82525050565b60006126ba826135bd565b6126c481856135d3565b93506126d4818560208601613798565b6126dd81613933565b840191505092915050565b60006126f3826135c8565b6126fd81856135e4565b935061270d818560208601613798565b61271681613933565b840191505092915050565b600061272c826135c8565b61273681856135f5565b9350612746818560208601613798565b80840191505092915050565b6000815461275f816137cb565b61276981866135f5565b945060018216600081146127845760018114612795576127c8565b60ff198316865281860193506127c8565b61279e856135a8565b60005b838110156127c0578154818901526001820191506020810190506127a1565b838801955050505b50505092915050565b60006127de6025836135f5565b91507f68747470733a2f2f6e6674707265766965772e30786465762e636f6465732f3f60008301527f636f64653d0000000000000000000000000000000000000000000000000000006020830152602582019050919050565b60006128446032836135e4565b91507f4552433732313a207472616e7366657220746f206e6f6e20455243373231526560008301527f63656976657220696d706c656d656e74657200000000000000000000000000006020830152604082019050919050565b60006128aa601c836135e4565b91507f4552433732313a20746f6b656e20616c7265616479206d696e746564000000006000830152602082019050919050565b60006128ea600a836135f5565b91507f54484952445f574f5244000000000000000000000000000000000000000000006000830152600a82019050919050565b600061292a6024836135e4565b91507f4552433732313a207472616e7366657220746f20746865207a65726f2061646460008301527f72657373000000000000000000000000000000000000000000000000000000006020830152604082019050919050565b60006129906019836135e4565b91507f4552433732313a20617070726f766520746f2063616c6c6572000000000000006000830152602082019050919050565b60006129d06063836135f5565b91507f222c20226465736372697074696f6e223a20224120686967686c79206163636c60008301527f61696d656420636f6c6c656374696f6e206f6620737175617265732e222c202260208301527f696d616765223a2022646174613a696d6167652f7376672b786d6c3b6261736560408301527f36342c00000000000000000000000000000000000000000000000000000000006060830152606382019050919050565b6000612a82600b836135f5565b91507f5345434f4e445f574f52440000000000000000000000000000000000000000006000830152600b82019050919050565b6000612ac2602c836135e4565b91507f4552433732313a206f70657261746f7220717565727920666f72206e6f6e657860008301527f697374656e7420746f6b656e00000000000000000000000000000000000000006020830152604082019050919050565b6000612b28600d836135f5565b91507f3c2f746578743e3c2f7376673e000000000000000000000000000000000000006000830152600d82019050919050565b6000612b686038836135e4565b91507f4552433732313a20617070726f76652063616c6c6572206973206e6f74206f7760008301527f6e6572206e6f7220617070726f76656420666f7220616c6c00000000000000006020830152604082019050919050565b6000612bce602a836135e4565b91507f4552433732313a2062616c616e636520717565727920666f7220746865207a6560008301527f726f2061646472657373000000000000000000000000000000000000000000006020830152604082019050919050565b6000612c346029836135e4565b91507f4552433732313a206f776e657220717565727920666f72206e6f6e657869737460008301527f656e7420746f6b656e00000000000000000000000000000000000000000000006020830152604082019050919050565b6000612c9a602e836135e4565b91507f45524337323155524953746f726167653a2055524920736574206f66206e6f6e60008301527f6578697374656e7420746f6b656e0000000000000000000000000000000000006020830152604082019050919050565b6000612d006002836135f5565b91507f227d0000000000000000000000000000000000000000000000000000000000006000830152600282019050919050565b6000612d406020836135e4565b91507f4552433732313a206d696e7420746f20746865207a65726f20616464726573736000830152602082019050919050565b6000612d806031836135e4565b91507f45524337323155524953746f726167653a2055524920717565727920666f722060008301527f6e6f6e6578697374656e7420746f6b656e0000000000000000000000000000006020830152604082019050919050565b6000612de6602c836135e4565b91507f4552433732313a20617070726f76656420717565727920666f72206e6f6e657860008301527f697374656e7420746f6b656e00000000000000000000000000000000000000006020830152604082019050919050565b6000612e4c6029836135e4565b91507f4552433732313a207472616e73666572206f6620746f6b656e2074686174206960008301527f73206e6f74206f776e00000000000000000000000000000000000000000000006020830152604082019050919050565b6000612eb2602f836135e4565b91507f4552433732314d657461646174613a2055524920717565727920666f72206e6f60008301527f6e6578697374656e7420746f6b656e00000000000000000000000000000000006020830152604082019050919050565b6000612f18600a836135f5565b91507f7b226e616d65223a2022000000000000000000000000000000000000000000006000830152600a82019050919050565b6000612f586021836135e4565b91507f4552433732313a20617070726f76616c20746f2063757272656e74206f776e6560008301527f72000000000000000000000000000000000000000000000000000000000000006020830152604082019050919050565b6000612fbe600a836135f5565b91507f46495253545f574f5244000000000000000000000000000000000000000000006000830152600a82019050919050565b6000612ffe601d836135f5565b91507f646174613a6170706c69636174696f6e2f6a736f6e3b6261736536342c0000006000830152601d82019050919050565b600061303e6031836135e4565b91507f4552433732313a207472616e736665722063616c6c6572206973206e6f74206f60008301527f776e6572206e6f7220617070726f7665640000000000000000000000000000006020830152604082019050919050565b6130a08161377f565b82525050565b60006130b28284612721565b915081905092915050565b60006130c98285612721565b91506130d58284612721565b91508190509392505050565b60006130ed8286612721565b91506130f98285612721565b91506131058284612721565b9150819050949350505050565b600061311e8287612752565b915061312a8286612721565b91506131368285612721565b91506131428284612721565b915061314d82612b1b565b915081905095945050505050565b6000613166826127d1565b91506131728284612721565b915081905092915050565b6000613188826128dd565b91506131948284612721565b915081905092915050565b60006131aa82612a75565b91506131b68284612721565b915081905092915050565b60006131cc82612f0b565b91506131d88285612721565b91506131e3826129c3565b91506131ef8284612721565b91506131fa82612cf3565b91508190509392505050565b600061321182612fb1565b915061321d8284612721565b915081905092915050565b600061323382612ff1565b915061323f8284612721565b915081905092915050565b600060208201905061325f6000830184612691565b92915050565b600060808201905061327a6000830187612691565b6132876020830186612691565b6132946040830185613097565b81810360608301526132a681846126af565b905095945050505050565b60006020820190506132c660008301846126a0565b92915050565b600060208201905081810360008301526132e681846126e8565b905092915050565b6000606082019050818103600083015261330881866126e8565b90506133176020830185613097565b6133246040830184612691565b949350505050565b6000602082019050818103600083015261334581612837565b9050919050565b600060208201905081810360008301526133658161289d565b9050919050565b600060208201905081810360008301526133858161291d565b9050919050565b600060208201905081810360008301526133a581612983565b9050919050565b600060208201905081810360008301526133c581612ab5565b9050919050565b600060208201905081810360008301526133e581612b5b565b9050919050565b6000602082019050818103600083015261340581612bc1565b9050919050565b6000602082019050818103600083015261342581612c27565b9050919050565b6000602082019050818103600083015261344581612c8d565b9050919050565b6000602082019050818103600083015261346581612d33565b9050919050565b6000602082019050818103600083015261348581612d73565b9050919050565b600060208201905081810360008301526134a581612dd9565b9050919050565b600060208201905081810360008301526134c581612e3f565b9050919050565b600060208201905081810360008301526134e581612ea5565b9050919050565b6000602082019050818103600083015261350581612f4b565b9050919050565b6000602082019050818103600083015261352581613031565b9050919050565b60006020820190506135416000830184613097565b92915050565b6000604051905081810181811067ffffffffffffffff8211171561356e5761356d613904565b5b8060405250919050565b600067ffffffffffffffff82111561359357613592613904565b5b601f19601f8301169050602081019050919050565b60008190508160005260206000209050919050565b600081519050919050565b600081519050919050565b600082825260208201905092915050565b600082825260208201905092915050565b600081905092915050565b600061360b8261377f565b91506136168361377f565b9250827fffffffffffffffffffffffffffffffffffffffffffffffffffffffffffffffff0382111561364b5761364a613877565b5b828201905092915050565b60006136618261377f565b915061366c8361377f565b92508261367c5761367b6138a6565b5b828204905092915050565b60006136928261377f565b915061369d8361377f565b9250817fffffffffffffffffffffffffffffffffffffffffffffffffffffffffffffffff04831182151516156136d6576136d5613877565b5b828202905092915050565b60006136ec8261377f565b91506136f78361377f565b92508282101561370a57613709613877565b5b828203905092915050565b60006137208261375f565b9050919050565b60008115159050919050565b60007fffffffff0000000000000000000000000000000000000000000000000000000082169050919050565b600073ffffffffffffffffffffffffffffffffffffffff82169050919050565b6000819050919050565b82818337600083830152505050565b60005b838110156137b657808201518184015260208101905061379b565b838111156137c5576000848401525b50505050565b600060028204905060018216806137e357607f821691505b602082108114156137f7576137f66138d5565b5b50919050565b60006138088261377f565b91507fffffffffffffffffffffffffffffffffffffffffffffffffffffffffffffffff82141561383b5761383a613877565b5b600182019050919050565b60006138518261377f565b915061385c8361377f565b92508261386c5761386b6138a6565b5b828206905092915050565b7f4e487b7100000000000000000000000000000000000000000000000000000000600052601160045260246000fd5b7f4e487b7100000000000000000000000000000000000000000000000000000000600052601260045260246000fd5b7f4e487b7100000000000000000000000000000000000000000000000000000000600052602260045260246000fd5b7f4e487b7100000000000000000000000000000000000000000000000000000000600052604160045260246000fd5b6000601f19601f8301169050919050565b61394d81613715565b811461395857600080fd5b50565b61396481613727565b811461396f57600080fd5b50565b61397b81613733565b811461398657600080fd5b50565b6139928161377f565b811461399d57600080fd5b5056fe416e204e465420772f20494420257320686173206265656e206d696e74656420746f2025734142434445464748494a4b4c4d4e4f505152535455565758595a6162636465666768696a6b6c6d6e6f707172737475767778797a303132333435363738392b2fa26469706673582212201ac4e91695bb74105c31420c58a24bd2869a22111fb5dce9f4c66c17bbe2c25664736f6c634300080000333c73766720786d6c6e733d27687474703a2f2f7777772e77332e6f72672f323030302f73766727207072657365727665417370656374526174696f3d27784d696e594d696e206d656574272076696577426f783d273020302033353020333530273e3c7374796c653e2e62617365207b2066696c6c3a2077686974653b20666f6e742d66616d696c793a2073657269663b20666f6e742d73697a653a20323470783b207d3c2f7374796c653e3c726563742077696474683d273130302527206865696768743d2731303025272066696c6c3d27626c61636b27202f3e3c7465787420783d273530252720793d273530252720636c6173733d27626173652720646f6d696e616e742d626173656c696e653d276d6964646c652720746578742d616e63686f723d276d6964646c65273e",
  "linkReferences": {},
  "deployedLinkReferences": {}
}